:020000020000FC
:100000000C9434020C943D020C943D020C943D027D
:100010000C943D020C943D020C943D020C943D0264
:100020000C943D020C943D020C943D020C943D0254
:100030000C943D020C943D020C943D020C943D0244
:100040000C943D020C943D020C943D020C943E0233
:100050000C943E022D205768656E206C6974746C98
:100060006520776F726C647320636F6C6C69646574
:1000700021202D0000002D2054686973206C696ECA
:1000800065206973206C6F6E676572207468656E99
:100090002069742073686F756C6420626521202D5F
:1000A00000007E005365742054696D65000053653F
:1000B0007420446174650000536574204163746961
:1000C000766174696F6E2054696D650044656C6576
:1000D00074652041637469766174696F6E20546938
:1000E0006D650000536574204272696768746E65BF
:1000F00073730000E4E5F0E00E9470010E94890142
:10010000E6E7F0E00E9470010E948E00003019F0D6
:100110000E949200F9CF0E94F901F6CF06B3046065
:10012000009508951F932F933F934F93EF93FF9361
:100130003327432F0E9493011FE30AE10E941C0210
:100140000E948E00202F12E02123211721F43395E5
:10015000353069F43327202F18E02123211739F493
:10016000303019F03A950C94B70035E03A953417D1
:1001700009F3432F032F0E94C6000C949A00FF91AD
:10018000EF914F913F912F911F9108951F93EF93FE
:10019000FF930E94BB010E944801E1EDE00FF0E0F7
:1001A000099404C019C02EC043C058C0E2EAF0E070
:1001B0000E947001E4EAF0E001E00E9457010E9411
:1001C00070010E948901EEEAF0E000E00E94570110
:1001D0000E9470010C944401E2EAF0E00E94700178
:1001E000E4EEF0E001E00E9457010E9470010E94DD
:1001F0008901E4EAF0E000E00E9457010E947001EA
:100200000C944401E2EAF0E00E947001ECECF0E0B2
:1002100001E00E9457010E9470010E948901E4EEF2
:10022000F0E000E00E9457010E9470010C9444012C
:10023000E2EAF0E00E947001E8EBF0E001E00E94E9
:1002400057010E9470010E948901ECECF0E000E08F
:100250000E9457010E9470010C944401E2EAF0E010
:100260000E947001EEEAF0E001E00E9457010E9456
:1002700070010E948901E8EBF0E000E00E94570164
:100280000E9470010C944401FF91EF911F91089519
:100290000F93EF93FF93E0ECF0E000E00083E2ECDB
:1002A000F0E000E00083FF91EF910F9108950F932C
:1002B0001F93EF93FF931127100F0591003019F052
:1002C00013950C945D01E0ECF0E00081011718F447
:1002D00010830E94F901FF91EF911F910F910895F2
:1002E0000F931F932F93222705912395003069F0D8
:1002F00029325CF40BBB00EA05BB11E001E00E946F
:100300001C0200E805BB0C9474012F911F910F9102
:1003100008950F93EF93FF9300EC0E940302FF9167
:10032000EF910F9108950F93EF93FF93E0ECF0E0BE
:1003300000810A95003110F00E94A201FF91EF9117
:100340000F9108950F931F930081E2ECF0E010816C
:100350000051101731F008E10E94030213950C942C
:10036000B7010CE10E9403021A951030D1F71083F7
:100370001F910F9108950F931F9301E00BBB00E2B3
:1003800005BB11E001E00E941C0200E005BB17E084
:1003900007E00E941C021F910F9108950E94E50141
:1003A0000FEF0E94EB010E94EF010E94F10100E0BB
:1003B0000E94F90100E00E94ED010FEF0E94F5019B
:1003C0000E94FB010E942F0208950F9300E804BFD2
:1003D00004BF0F9108950ABB089507BB089504BB9D
:1003E000089501BB08950BBB089508BB089505BB94
:1003F000089502BB089508E30E9403020E941102BF
:100400000E94480108951F930BBB00E005BB00E26A
:1004100005BB01E011E00E941C0200E005BB1F913A
:1004200008950F930CE00BBB00E005BB00E205BB99
:1004300000E005BB0F910895FF93EF93DF93FF2733
:10044000F395EE27E395DD27D395D017E9F7E0176D
:10045000C9F7F117A9F7DF91EF91FF9108950F9375
:1004600000E20BBF0F91089504E00EBF0FE50DBF32
:0C0470000E94CE0178940E947A0018953A
:00000001FF
