:020000020000FC
:100000000C943B020C9444020C9444020C94440261
:100010000C9444020C9444020C9444020C94440248
:100020000C9444020C9444020C9454020C94540218
:100030000C9454020C9454020C9454020C945402E8
:100040000C9454020C9454020C9454020C945502D7
:100050000C9455022D205768656E206C6974746C81
:100060006520776F726C647320636F6C6C69646574
:1000700021202D0000002D2054686973206C696ECA
:1000800065206973206C6F6E676572207468656E99
:100090002069742073686F756C6420626521202D5F
:1000A00000007E005365742054696D65000053653F
:1000B0007420446174650000536574204163746961
:1000C000766174696F6E2054696D650044656C6576
:1000D00074652041637469766174696F6E20546938
:1000E0006D650000536574204272696768746E65BF
:1000F00073730000E4E5F0E00E946C010E9485014A
:10010000E6E7F0E00E946C010E948C00003019F0DC
:100110000E949000F9CFF8CF06B3046000950895CF
:100120001F932F933F934F93EF93FF933327432FC7
:100130000E948F011FE30BE10E941A020E948C00B3
:10014000202F12E02123211721F43395353069F453
:100150003327202F18E02123211739F4303019F0EC
:100160003A950C94B50035E03A95341709F3432FCE
:10017000032F0E94C4000C949800FF91EF914F91BF
:100180003F912F911F9108951F93EF93FF930E942A
:10019000B7010E944601EFECE00FF0E0099404C0C3
:1001A00019C02EC043C058C0E2EAF0E00E946C01C2
:1001B000E4EAF0E001E00E9455010E946C010E9417
:1001C0008501EEEAF0E000E00E9455010E946C011A
:1001D0000C944201E2EAF0E00E946C01E4EEF0E0EF
:1001E00001E00E9455010E946C010E948501E4EA31
:1001F000F0E000E00E9455010E946C010C94420165
:10020000E2EAF0E00E946C01ECECF0E001E00E9418
:1002100055010E946C010E948501E4EEF0E000E0CF
:100220000E9455010E946C010C944201E2EAF0E048
:100230000E946C01E8EBF0E001E00E9455010E9491
:100240006C010E948501ECECF0E000E00E94550199
:100250000E946C010C944201E2EAF0E00E946C0101
:10026000EEEAF0E001E00E9455010E946C010E945C
:100270008501E8EBF0E000E00E9455010E946C016E
:100280000C944201FF91EF911F9108950F93EF930A
:10029000FF93E0ECF0E000E00083E2ECF0E000E04F
:1002A0000083FF91EF910F9108950F931F93EF93A8
:1002B000FF931127100F0591003019F013950C943E
:1002C0005B01E0ECF0E00081011708F41083FF917E
:1002D000EF911F910F9108950F931F932F93222752
:1002E00005912395003069F029325CF40BBB00EADC
:1002F00005BB11E001E00E941A0200E805BB0C9466
:1003000070012F911F910F9108950F93EF93FF9319
:1003100000EC0E940102FF91EF910F9108950F935D
:10032000EF93FF93E0ECF0E000810A95003110F0CC
:100330000E949E01FF91EF910F9108950F931F93DB
:100340000081E2ECF0E010810051101731F008E17B
:100350000E94010213950C94B3010CE10E9401026A
:100360001A951030D1F710831F910F9108950F93B4
:100370001F9301E00BBB00E205BB11E001E00E940E
:100380001A0200E005BB17E007E00E941A021F9165
:100390000F9108950E94E3010FEF0E94E9010E946E
:1003A000ED010E94EF0100E00E94F70100E00E94D1
:1003B000EB010FEF0E94F3010E94F9010E942D0250
:1003C0000E94320208950F9300E804BF04BF0F910A
:1003D00008950ABB089507BB089504BB089501BBA7
:1003E00008950BBB089508BB089505BB089502BB93
:1003F000089508E30E9401020E940F020E94460134
:1004000008951F930BBB00E005BB00E205BB01E0B4
:1004100011E00E941A0200E005BB1F9108950F939E
:100420000CE00BBB00E005BB00E205BB00E005BB38
:100430000F910895FF93EF93DF93FF27F395EE2736
:10044000E395DD27D395D017E9F7E017C9F7F11742
:10045000A9F7DF91EF91FF9108950F9300E20BBF91
:100460000F9108950F9301E009BF0CE302BF04E070
:1004700003BF0F91089504E00EBF0FE50DBF0E946A
:10048000CA0178940E947A000F930CE302BFEF93A5
:10049000FF93E8ECF0E00081039500830E94F701F0
:0A04A000FF91EF910F911895189548
:00000001FF
