:020000020000FC
:100000000C94A0000C94A9000C94A9000C94A900D5
:100010000C94A9000C94A9000C94A9000C94A900BC
:100020000C94A9000C94A9000C94A9000C94A900AC
:100030000C94A9000C94A9000C94A9000C94A9009C
:100040000C94A9000C94A9000C94A9000C94AA008B
:100050000C94AA002D2048656C6C6F204769726C67
:100060007321202D0000494665656C54686F7365E7
:100070005468696E67730000E4E5F0E00E94480090
:1000800000EC0E947A00E6E6F0E00E944800FFCF14
:100090000F931F93059110E0011789F00BBB00E847
:1000A00005BB00EA05BB1F930F9311E001E00E941E
:1000B0008D000F911F9100E805BB0C944A001F9121
:1000C0000F9108950E9469000E946F000E947400C1
:1000D00008950F9300E804BF04BF0F9108950F9394
:1000E0000FEF0ABB04BB0F9108E30E947A000E9445
:1000F000820008950BBB00E005BB00E205BB00E0F9
:1001000005BB08950F930FE00BBB00E005BB00E2B9
:1001100005BB00E005BB0F910895FF93EF93DF93BC
:10012000FF27F395EE27E395DD27D395D017E9F761
:10013000E017C9F7F117A9F7DF91EF91FF91089543
:1001400004E00EBF0FE50DBF0E94620078940E948C
:040150003C001895C2
:00000001FF
