:020000020000FC
:100000000C9433020C943C020C943C020C943C0281
:100010000C943C020C943C020C943C020C943C0268
:100020000C943C020C943C020C943C020C943C0258
:100030000C943C020C943C020C943C020C943C0248
:100040000C943C020C943C020C943C020C943D0237
:100050000C943D022D205768656E206C6974746C99
:100060006520776F726C647320636F6C6C69646574
:1000700021202D0000002D2054686973206C696ECA
:1000800065206973206C6F6E676572207468656E99
:100090002069742073686F756C6420626521202D5F
:1000A00000007E005365742054696D65000053653F
:1000B0007420446174650000536574204163746961
:1000C000766174696F6E2054696D650044656C6576
:1000D00074652041637469766174696F6E20546938
:1000E0006D650000536574204272696768746E65BF
:1000F00073730000E4E5F0E00E946E010E94880145
:10010000E6E7F0E00E946E010E948E00003019F0D8
:100110000E949200F9CF0E94F801F6CF06B3046066
:10012000009508951F932F933F934F93EF93FF9361
:100130003327432F0E9492011FE30AE10E941B0212
:100140000E948E00202F12E02123211721F43395E5
:10015000353069F43327202F18E02123211739F493
:10016000303019F03A950C94B70035E03A953417D1
:1001700009F3432F032F0E94C6000C949A00FF91AD
:10018000EF914F913F912F911F9108951F93EF93FE
:10019000FF930E94BA010E944801E1EDE00FF0E0F8
:1001A000099404C019C02EC043C058C0E2EAF0E070
:1001B0000E946E01E4EAF0E001E00E9457010E9413
:1001C0006E010E948801EEEAF0E000E00E94570113
:1001D0000E946E010C944401E2EAF0E00E946E017C
:1001E000E4EEF0E001E00E9457010E946E010E94DF
:1001F0008801E4EAF0E000E00E9457010E946E01ED
:100200000C944401E2EAF0E00E946E01ECECF0E0B4
:1002100001E00E9457010E946E010E948801E4EEF5
:10022000F0E000E00E9457010E946E010C9444012E
:10023000E2EAF0E00E946E01E8EBF0E001E00E94EB
:1002400057010E946E010E948801ECECF0E000E092
:100250000E9457010E946E010C944401E2EAF0E012
:100260000E946E01EEEAF0E001E00E9457010E9458
:100270006E010E948801E8EBF0E000E00E94570167
:100280000E946E010C944401FF91EF911F9108951B
:100290000F93EF93FF93E0ECF0E000E00083E2ECDB
:1002A000F0E000E00083FF91EF910F9108950F932C
:1002B0001F93EF93FF931127100F0591003019F052
:1002C00013950C945D01E0ECF0E00491011708F443
:1002D000E895FF91EF911F910F9108950F931F9350
:1002E0002F9322270591239510E0011769F02932F9
:1002F0005CF40BBB00EA05BB11E001E00E941B02AD
:1003000000E805BB0C9472012F911F910F91089585
:100310000F93EF93FF9300EC0E940202FF91EF9185
:100320000F9108950F93EF93FF93E0ECF0E00491A9
:100330000A95003110F00E94A101FF91EF910F91F9
:1003400008950F931F930491E2ECF0E01491005193
:10035000101731F008E10E94020213950C94B601C7
:100360000CE10E9402021A951030D1F7E8951F9116
:100370000F9108950F931F9301E00BBB00E205BBA3
:1003800011E001E00E941B0200E005BB17E007E05E
:100390000E941B021F910F9108950E94E4010FEF2C
:1003A0000E94EA010E94EE010E94F00100E00E941A
:1003B000F80100E00E94EC010FEF0E94F4010E949E
:1003C000FA010E942E0208950F9300E804BF04BFB3
:1003D0000F9108950ABB089507BB089504BB0895C3
:1003E00001BB08950BBB089508BB089505BB089594
:1003F00002BB089508E30E9402020E9410020E94BC
:10040000480108951F930BBB00E005BB00E205BB4C
:1004100001E011E00E941B0200E005BB1F9108955E
:100420000F930CE00BBB00E005BB00E205BB00E056
:1004300005BB0F910895FF93EF93DF93FF27F3958B
:10044000EE27E395DD27D395D017E9F7E017C9F735
:10045000F117A9F7DF91EF91FF9108950F9300E253
:100460000BBF0F91089504E00EBF0FE50DBF0E9472
:0A047000CD0178940E947A001895DF
:00000001FF
