:020000020000FC
:100000000C948E000C9497000C9497000C9497001D
:100010000C9497000C9497000C9497000C94970004
:100020000C9497000C9497000C9497000C949700F4
:100030000C9497000C9497000C9497000C949700E4
:100040000C9497000C9497000C9497000C949800D3
:100050000C9498002D2048656C6C6F204769726C79
:100060007321202D0000E4E5F0E00E943800FFCF6E
:100070000F931F93059110E0011769F00BBB00E887
:1000800005BB00EA05BBB1E0C1E00E947B0000E8CF
:1000900005BB0C943A001F910F9108950E945500E2
:1000A0000E945B000E94600008950F9300E804BF67
:1000B00004BF0F9108950F930FEF0ABB04BB0F917C
:1000C0000E9465000E94700008950F9308E30BBB27
:1000D00000E005BB00E205BB00E005BB0F91089501
:1000E0000F930FE00BBB00E005BB00E205BB00E097
:1000F00005BB0F910895FF93EF93DF93FF27EE2742
:10010000DD27F395E395D395DC17E9F7EC17D1F7E5
:10011000FB17B9F7DF91EF91FF91089504E00EBF4F
:100120000FE50DBF0E944E0078940E943300189591
:00000001FF
