:020000020000FC
:100000000C94A9000C94B2000C94B2000C94B200B1
:100010000C94B2000C94B2000C94B2000C94B20098
:100020000C94B2000C94B2000C94B2000C94B20088
:100030000C94B2000C94B2000C94B2000C94B20078
:100040000C94B2000C94B2000C94B2000C94B30067
:100050000C94B3002D2048656C6C6F204769726C5E
:100060007321202D0000494665656C54686F7365E7
:100070005468696E67730000E4E5F0E00E944F0089
:100080000F9300EC0BBB00E005BB00E205BB00E0FA
:1000900005BB0F91E6E6F0E00E944F00FFCF0F9303
:1000A0001F93059110E0011789F00BBB00E805BB19
:1000B00000EA05BB1F930F9311E001E00E94960038
:1000C0000F911F9100E805BB0C9451001F910F91F7
:1000D00008950E9470000E9476000E947B0008959F
:1000E0000F9300E804BF04BF0F9108950F930FEF23
:1000F0000ABB04BB0F910E9480000E948B000895F0
:100100000F9308E30BBB00E005BB00E205BB00E07A
:1001100005BB0F9108950F930FE00BBB00E005BBEB
:1001200000E205BB00E005BB0F910895FF93EF933C
:10013000DF93FF27F395EE27E395DD27D395D017BF
:10014000E9F7E017C9F7F117A9F7DF91EF91FF91F0
:10015000089504E00EBF0FE50DBF0E94690078947A
:060160000E943C0018950E
:00000001FF
