:020000020000FC
:100000000C947B010C9484010C9484010C94840165
:100010000C9484010C9484010C9484010C9484014C
:100020000C9484010C9484010C9484010C9484013C
:100030000C9484010C9484010C9484010C9484012C
:100040000C9484010C9484010C9484010C9485011B
:100050000C9485012D205768656E206C6974746C52
:100060006520776F726C647320636F6C6C69646574
:1000700021202D0000002D2054686973206C696ECA
:1000800065206973206C6F6E676572207468656E99
:100090002069742073686F756C6420626521202D5F
:1000A00000002D205365742054696D65202D0000DB
:1000B0002D205365742044617465202D202020205C
:1000C00020202020202020202020202020002D2043
:1000D0005365742041637469766174696F6E20544E
:1000E000696D65202D002D2044656C657465204187
:1000F000637469766174696F6E2054696D65202D33
:1001000000002D20536574204272696768746E6523
:100110007373202D0000E4E5F0E00E94B8000E9417
:10012000D400E6E7F0E00E94B8000FE11FE10E9472
:1001300063010E94A500003029F00E9436010E9450
:10014000A900F7CF0E943601F4CF06B304600095F2
:100150000895E2EAF0E00E94B8000E94D400E0EBCB
:10016000F0E00E94B8000FE11FE10E9463010895D2
:100170000F931F932F9322270591239510E00117CA
:1001800079F029326CF40BBB00E805BB00EA05BB33
:1001900011E001E00E94630100E805BB0C94BC0083
:1001A0002F911F910F9108950F93EF93FF9300EC00
:1001B0000E944A01E0ECF0E0208120952083FF912D
:1001C000EF910F9108950F93EF93FF93E2ECF0E01E
:1001D00000810A95003110F00E94F200FF91EF912A
:1001E0000F9108950F931F930081E4ECF0E01081CC
:1001F0000051101731F008E10E944A0113950C9448
:1002000007010CE10E944A011A951030D1F71083C2
:100210001F910F9108950E9422010FEF0E94280163
:100220000E942C010E942E0100E00E94360100E095
:100230000E942A010FEF0E9432010E9438010E94A1
:10024000760108950F9300E804BF04BF0F9108954D
:100250000ABB089507BB089504BB089501BB089528
:100260000BBB089508BB089505BB089502BB089514
:1002700008E30E944A010E945801E0ECF0E000E02F
:100280000083E2ECF0E000E00083E4ECF0E000E06A
:10029000008308951F930BBB00E005BB00E205BB84
:1002A00001E011E00E94630100E005BB1F91089589
:1002B0000F930FE00BBB00E005BB00E205BB00E0C5
:1002C00005BB0F910895FF93EF93DF93FF27F395FD
:1002D000EE27E395DD27D395D017E9F7E017C9F7A7
:1002E000F117A9F7DF91EF91FF9108950F9300E2C5
:1002F0000BBF0F91089504E00EBF0FE50DBF0E94E4
:0A0300000B0178940E948B00189501
:00000001FF
