:020000020000FC
:100000000C9489020C9492020C9492020C94920229
:100010000C9492020C9492020C9492020C94920210
:100020000C9492020C9492020C94A0020C94A002E4
:100030000C94A0020C94A0020C94A0020C94A002B8
:100040000C94A0020C94A0020C94A0020C94A102A7
:100050000C94A1022D205768656E206C6974746C35
:100060006520776F726C647320636F6C6C69646574
:1000700021202D0000002D2054686973206C696ECA
:1000800065206973206C6F6E676572207468656E99
:100090002069742073686F756C6420626521202D5F
:1000A00000007E005365742054696D65000053653F
:1000B0007420446174650000536574204163746961
:1000C000766174696F6E2054696D650044656C6576
:1000D00074652041637469766174696F6E20546938
:1000E0006D650000536574204272696768746E65BF
:1000F00073730000E4E5F0E00E9460010E94780163
:10010000E6E7F0E00E9460010E948C00003019F0E8
:100110000E949000F9CFF8CF06B3046000950895CF
:100120001F932F933F934F93EF93FF933327432FC7
:100130000E9482010E948C00202F12E021232117AF
:1001400021F43395353061F43327202F18E0212333
:10015000211731F4303011F03A9502C035E03A956C
:10016000341731F3432F032F0E94BE00E1CFFF91DC
:10017000EF914F913F912F911F9108951F93EF930E
:10018000FF930E9405020E943B01E9ECE00FF0E0C2
:10019000099404C018C02CC040C054C0E2EAF0E08A
:1001A0000E946001E4EAF0E001E00E944A010E943E
:1001B00060010E947801EEEAF0E000E00E944A014E
:1001C0000E94600154C0E2EAF0E00E946001E4EEA7
:1001D000F0E001E00E944A010E9460010E94780163
:1001E000E4EAF0E000E00E944A010E9460013FC0A2
:1001F000E2EAF0E00E946001ECECF0E001E00E9435
:100200004A010E9460010E947801E4EEF0E000E003
:100210000E944A010E9460012AC0E2EAF0E00E94C6
:100220006001E8EBF0E001E00E944A010E946001F9
:100230000E947801ECECF0E000E00E944A010E948C
:10024000600115C0E2EAF0E00E946001EEEAF0E031
:1002500001E00E944A010E9460010E947801E8EBDF
:10026000F0E000E00E944A010E94600100C0FF919E
:10027000EF911F9108950F93EF93FF93E0ECF0E05F
:1002800000E00083E2ECF0E000E00083FF91EF91FA
:100290000F9108950F931F93EF93FF931127100F62
:1002A0000591003011F01395FBCFE0ECF0E00081F8
:1002B000011708F41083FF91EF911F910F9108959A
:1002C0000F931F932F93222705912395003061F000
:1002D000293254F40BBB00EA05BB11E001E00E9497
:1002E000680200E805BBF0CF2F911F910F91089590
:1002F0000F93EF93FF9300EC0E944F02FF91EF9159
:100300000F9108950F93EF93FF93E0ECF0E00081DD
:100310000A95003148F00E949801013029F4E0EC80
:10032000F0E000810E94DE01FF91EF910F910895AE
:100330001F932F933F93EF93FF9300E0E8ECF0E0DF
:100340001081EAECF0E020812117A1F010830F93D7
:10035000012F122F0E94C001ECECF0E01081010F80
:10036000302F25E10E94CA0100300F9111F0312F8A
:1003700001E03083FF91EF913F912F911F910895FC
:100380002F93202F011B10F02F910895121B012F86
:100390002F910895011748F43F93102F3FEF321B20
:1003A0003395130F01E03F910895021728F0102FA5
:1003B000121B139501E0089500E008950F931F9319
:1003C000EF93FF93E2ECF0E010810051101759F029
:1003D00008E10E944F02139512C01F9311E001E043
:1003E0000E9468021F910CE10E944F021A95103082
:1003F000D1F71F9311E001E00E9468021F91108362
:10040000FF91EF911F910F9108950F931F9301E0BA
:100410000BBB00E205BB11E001E00E94680200E0B6
:1004200005BB17E007E00E9468021F910F91089535
:100430000E9431020FEF0E9437020E943B020E948D
:100440003D0200E00E94450200E00E9439020FEFE9
:100450000E9441020E9447020E947B020E94800289
:1004600008950F9300E804BF04BF0F9108950ABBDD
:10047000089507BB089504BB089501BB08950BBB05
:10048000089508BB089505BB089502BB089508E3CD
:100490000E944F020E945D020E943B0108951F933B
:1004A0000BBB00E005BB00E205BB01E011E00E94D0
:1004B000680200E005BB1F9108950F930CE00BBB91
:1004C00000E005BB00E205BB00E005BB0F9108950D
:1004D000FF93EF93DF93FF27F395EE27E395DD2757
:1004E000D395D017E9F7E017C9F7F117A9F7DF910E
:1004F000EF91FF9108950F9300E20BBF0F910895C4
:100500000F9301E009BF0CE302BF04E003BF0F91AA
:10051000089504E00EBF0FE50DBF0E941802789405
:100520000E947A000F930CE302BFEF93FF93E8EC75
:10053000F0E0008103950083FF91EF910F911895F2
:0205400018950C
:00000001FF
