:020000020000FC
:100000000C9466000C946F000C946F000C946F00BD
:100010000C946F000C946F000C946F000C946F00A4
:100020000C946F000C946F000C946F000C946F0094
:100030000C946F000C946F000C946F000C946F0084
:100040000C946F000C946F000C946F000C94700073
:100050000C947000FFCF0E9432000E9438000E9472
:100060003E0008950F9300E804BF04BF0F91089568
:100070000F930FEF0ABB0FEF04BB0F910E944300D9
:100080000E944E0008950F9308E30BBB00E005BBF0
:1000900000E205BB00E005BB0F9108950F930FE050
:1000A0000BBB00E005BB00E205BB00E005BB0F9108
:1000B0000895FF27EE27DD27F395E395D395D03FED
:1000C000E9F7E03FD1F7F03FB9F7089504E00EBF3C
:1000D0000FE50DBF0E942B0078940E942A0018950E
:00000001FF
