:020000020000FC
:100000000C9477030C9480030C9480030C9480036D
:100010000C9480030C9480030C9480030C94800354
:100020000C9480030C9480030C9497030C94970316
:100030000C9497030C9497030C9497030C949703D8
:100040000C9497030C9497030C9497030C949803C7
:100050000C9498032D205768656E206C6974746C3D
:100060006520776F726C647320636F6C6C69646574
:1000700021202D0000002D2054686973206C696ECA
:1000800065206973206C6F6E676572207468656E99
:100090002069742073686F756C6420626521202D5F
:1000A00000007E005365742054696D65000053653F
:1000B0007420446174650000536574204163746961
:1000C000766174696F6E2054696D650044656C6576
:1000D00074652041637469766174696F6E20546938
:1000E0006D650000536574204272696768746E65BF
:1000F000737300002020203C53657420486F757294
:100100003E0020203C536574204D696E7574653E39
:100110000000203C53657420205365636F6E647348
:100120003E003000E4E5F0E00E946E020E9486028C
:10013000E6E7F0E00E946E020E94A6000E940F0314
:10014000003019F00E94AA00F7CFF6CF06B3046082
:10015000009508951F932F933F934F93EF93FF9331
:100160003327432F0E94A6000E940F03202F11E087
:100170002123211721F4042F0E94680118C0202F89
:1001800012E02123211721F43395353061F4332710
:10019000202F18E02123211731F4303011F03A9547
:1001A00002C035E03A95341721F0432F032F0E9407
:1001B000EB001F930F931FE30BE10E944E030F917F
:1001C0001F910E949002CECFFF91EF914F913F91EE
:1001D0002F911F9108951F93EF93FF930E94CD02DB
:1001E0000E943502E6EFE00FF0E0099404C018C069
:1001F0002CC040C054C0E2EAF0E00E946E02E4EA83
:10020000F0E001E00E944A020E946E020E94860213
:10021000EEEAF0E000E00E944A020E946E0254C042
:10022000E2EAF0E00E946E02E4EEF0E001E00E94FB
:100230004A020E946E020E948602E4EAF0E000E0B8
:100240000E944A020E946E023FC0E2EAF0E00E9471
:100250006E02ECECF0E001E00E944A020E946E02A5
:100260000E948602E4EEF0E000E00E944A020E9452
:100270006E022AC0E2EAF0E00E946E02E8EBF0E0D3
:1002800001E00E944A020E946E020E948602ECEC8B
:10029000F0E000E00E944A020E946E0215C0E2EA0D
:1002A000F0E00E946E02EEEAF0E001E00E944A02F5
:1002B0000E946E020E948602E8EBF0E000E00E94DD
:1002C0004A020E946E0200C0FF91EF911F910895B3
:1002D000EF93FF930E94CD02E0E7E00FF1E0099475
:1002E00004C006C008C00AC00CC00E9486010BC032
:1002F0000E94310208C00E94320205C00E943302EF
:1003000002C00E943402FF91EF9108950F931F9352
:100310002F933F934F935F936F93EF93FF930E94BD
:10032000D00130E0032F0E94DE011FE30BE10E94A9
:100330004E030E94A600202F11E02123211709F46B
:1003400019C0202F12E02123211709F40EC0202FFD
:1003500018E02123211709F408C0202F10E42123DD
:10036000211719F731500AF411C04395042F0E9448
:100370000402DBCF33953330A9F6E2EDF0E04083A1
:10038000E4EDF0E05083E6EDF0E06083FF91EF9163
:100390006F915F914F913F912F911F910F91089510
:1003A000EF93FF93E2EDF0E04081E4EDF0E0508167
:1003B000E6EDF0E06081FF91FF910895EF93FF93E8
:1003C0000E94CD020E943502003041F4E4EFF0E0DB
:1003D00000E00E944A020E946E0211C0013041F406
:1003E000E2E0F1E000E00E944A020E946E0207C0D3
:1003F000E2E1F1E000E00E944A020E946E020E94E7
:100400008602FF91EF9108952F933F936F930F937F
:100410001F934F935F93EF93FF9307E010E0222722
:100420003327889460E1001F111F221F331F422FC2
:10043000532F08944A40504010F4242F352F6A95CA
:1004400091F7E2E2F1E00491020F0E946002FF9155
:10045000EF915F914F911F910F916F913F912F916C
:10046000089508950895089508950F930CE302BF29
:10047000EF93FF93EAECF0E000E00083E0ECF0E0C3
:1004800000E00083E2ECF0E000E00083FF91EF91F8
:100490000F9108950F931F93EF93FF931127100F60
:1004A0000591003011F01395FBCFE0ECF0E00081F6
:1004B000011708F41083FF91EF911F910F91089598
:1004C0000F931F930BBB00EA05BB01E011E00E94F4
:1004D0004E0300E805BB1F910F9108950F931F93E2
:1004E0002F93222705912395003061F0293254F48F
:1004F0000BBB00EA05BB11E001E00E944E0300E8DF
:1005000005BBF0CF2F911F910F9108950F93EF939B
:10051000FF9300EC0E943503FF91EF910F91089536
:100520000F93EF93FF93E0ECF0E000810A95003128
:1005300048F00E94A602013029F4E0ECF0E00081CE
:100540000E94B202FF91EF910F9108951F93EF93D4
:10055000FF93E8ECF0E0008110E01083FF91EF9151
:100560001F9108950F931F93EF93FF93E2ECF0E038
:1005700010810051101729F008E10E9435031395EE
:1005800006C00CE10E9435031A951030D1F7108394
:10059000FF91EF911F910F9108950F931F9301E029
:1005A0000BBB00E205BB11E001E00E944E0300E03E
:1005B00005BB17E007E00E944E031F910F910895BD
:1005C0000E94FB020FEF0E9401030E9405030E949C
:1005D000070300E00E940F0300E00E9403030FEFF7
:1005E0000E940B030E9411030E942D030E946103CD
:1005F0000E94660308950F9300E804BF04BF0F91A3
:1006000008950ABB089507BB089504BB089501BB74
:1006100008950BBB089508BB089505BB089502BB60
:1006200008950F931F93EF93FF9310E0ECECF0E02D
:100630001083EEECF0E01083E0EDF0E01083E2EDEB
:10064000F0E01083E4EDF0E01083E6EDF0E01083DD
:10065000FF91EF911F910F91089508E30E943503D8
:100660000E9443030E94350208951F930BBB00E0D4
:1006700005BB00E205BB01E011E00E944E0300E073
:1006800005BB1F9108950F930CE00BBB00E005BB69
:1006900000E205BB00E005BB0F910895FF93EF93C7
:1006A000DF93FF27F395EE27E395DD27D395D0174A
:1006B000E9F7E017C9F7F117A9F7DF91EF91FF917B
:1006C00008950F9300E20BBF0F9108950F93EF93DE
:1006D000FF93EAECF0E00027008301E009BF0CE3A0
:1006E00002BF04E003BFFF91EF910F91089504E072
:1006F0000EBF0FE50DBF0E94E00278940E949200A9
:100700000F930CE302BFEF93FF93EAECF0E000815C
:100710000395013129F401E0E8ECF0E000830027C3
:10072000EAECF0E00083FF91EF910F911895189596
:00000001FF
