:020000020000FC
:100000000C9430010C9439010C9439010C94390191
:100010000C9439010C9439010C9439010C94390178
:100020000C9439010C9439010C9439010C94390168
:100030000C9439010C9439010C9439010C94390158
:100040000C9439010C9439010C9439010C943D0144
:100050000C943D012D205768656E206C6974746C9A
:100060006520776F726C647320636F6C6C69646574
:1000700021202D0000002D2054686973206C696ECA
:1000800065206973206C6F6E676572207468656E99
:100090002069742073686F756C6420626521202D5F
:1000A0000000E4E5F0E00E946A000E948D00E6E7AF
:1000B000F0E00E946A00FFCF1F932F93102F069548
:1000C00022E0101719F400E00C94670001E02F9172
:1000D0001F9108950F931F932F9322270591239526
:1000E00010E0011779F029326CF40BBB00E805BB76
:1000F00000EA05BB11E001E00E94180100E805BB21
:100100000C946E002A95E2ECF0E00081201708F0D4
:1001100020832F911F910F9108950F93EF93FF93D9
:1001200000EC0E940301E0ECF0E0208120952083A8
:10013000FF91EF910F9108950F93EF93FF93E2ECEE
:10014000F0E000810A95003110F00E94AB00FF91B1
:10015000EF910F9108950F931F930081E4ECF0E06D
:1001600010810051101731F008E10E94030113952E
:100170000C94C0000CE10E9403011A951030D1F7D5
:1001800010831F910F9108950E94DB000FEF0E94D2
:10019000E1000E94E5000E94E70000E00E94EF00FD
:1001A00000E00E94E30000E00E94EB000E94F100EA
:1001B0000E942B0108950F9300E804BF04BF0F9124
:1001C00008950ABB089507BB089504BB089501BBB9
:1001D00008950BBB089508BB089505BB089502BBA5
:1001E000089508E30E9403010E940D01E0ECF0E095
:1001F00000E00083E2ECF0E000E00083E4ECF0E0FB
:1002000000E0008308950BBB00E005BB00E205BBE6
:100210000E94180100E005BB08950F930FE00BBB8F
:1002200000E005BB00E205BB00E005BB0F910895AF
:10023000FF93EF93DF93FF27F395EE27E395DD27F9
:10024000D395D017E9F7E017C9F7F117A9F7DF91B0
:10025000EF91FF9108950F9300E20BBF0F91089566
:1002600004E00EBF0FE50DBF0E94C40078940E9409
:0A02700051000FEF0E94EF001895F7
:00000001FF
