:020000020000FC
:100000000C946A000C9473000C9473000C947300AD
:100010000C9473000C9473000C9473000C94730094
:100020000C9473000C9473000C9473000C94730084
:100030000C9473000C9473000C9473000C94730074
:100040000C9473000C9473000C9473000C94740063
:100050000C947400FFCF0E9436000E945D000E9445
:100060005D000E943C000E94420008950F9300E84A
:1000700004BF04BF0F9108950F930FEF0ABB0FEF5A
:100080000ABB0F910E9447000E94520008950F93EF
:1000900008E30BBB00E005BB00E805BB00E005BBC7
:1000A0000F9108950F930FE00BBB00E005BB00E834
:1000B00005BB00E005BB0F910895FF27EE27DD2764
:1000C000F395E395D395D03FE9F7E03FD1F7F03FC3
:1000D000B9F7089504E00EBF0FE50DBF0E942B0095
:0800E00078940E942A00189593
:00000001FF
