:020000020000FC
:100000000C94DD010C94E6010C94E6010C94E601DD
:100010000C94E6010C94E6010C94E6010C94E601C4
:100020000C94E6010C94E6010C94E6010C94E601B4
:100030000C94E6010C94E6010C94E6010C94E601A4
:100040000C94E6010C94E6010C94E6010C94E70193
:100050000C94E7012D205768656E206C6974746CF0
:100060006520776F726C647320636F6C6C69646574
:1000700021202D0000002D2054686973206C696ECA
:1000800065206973206C6F6E676572207468656E99
:100090002069742073686F756C6420626521202D5F
:1000A00000007E002D205365742054696D65202D5D
:1000B00000002D205365742044617465202D0000DC
:1000C0002D205365742041637469766174696F6E85
:1000D0002054696D65202D002D2044656C65746584
:1000E0002041637469766174696F6E2054696D652F
:1000F000202D00002D2053657420427269676874BA
:100100006E657373202D0000D600E600F600F8003F
:10011000FA00E4E5F0E00E9409010E942301E6E70D
:10012000F0E00E9409010E949F00003029F00E9427
:1001300098010E94A300F7CF0E949801F4CF06B364
:100140000460009508951F932F933F934F93EF936F
:10015000FF930E945A011FE10FE00E94C50133275F
:10016000432F0E949F00202F12E02123211731F4FA
:10017000353019F033950C94BE003327202F18E04A
:100180002123211739F4303019F03A950C94CA0024
:1001900035E03A95341781F1432F032F0E949801DF
:1001A000330FE8E0E30FF1E0F30F0994E2EAF0E047
:1001B0000E940901E4EAF0E00E9409010E94230183
:1001C000E2EBF0E00E9409010C94FC00E2EAF0E0AE
:1001D0000E940901E2EBF0E00E9409010E94230164
:1001E000E0ECF0E00E9409010C94FC000C94FC008F
:1001F0000C94FC000C94FC000FE11FE10E94C5016F
:100200000C94B100FF91EF914F913F912F911F916D
:1002100008950F931F932F9322270591239510E0A4
:10022000011769F029325CF40BBB00EA05BB11E051
:1002300001E00E94C50100E805BB0C940D012F915F
:100240001F910F9108950F93EF93FF9300EC0E947D
:10025000AC01E0ECF0E0208120952083FF91EF914C
:100260000F9108950F93EF93FF93E2ECF0E000817C
:100270000A95003110F00E944101FF91EF910F911A
:1002800008950F931F930081E4ECF0E0108100517A
:10029000101731F008E10E94AC0113950C9456013F
:1002A0000CE10E94AC011A951030D1F710831F9118
:1002B0000F9108950F931F9301E00BBB00E205BB64
:1002C00011E001E00E94C50100E005BB17E007E076
:1002D0000E94C5011F910F9108950E9484010FEFA4
:1002E0000E948A010E948E010E94900100E00E94FB
:1002F000980100E00E948C010FEF0E9494010E947F
:100300009A010E94D80108950F9300E804BF04BF2A
:100310000F9108950ABB089507BB089504BB089583
:1003200001BB08950BBB089508BB089505BB089554
:1003300002BB089508E30E94AC010E94BA01E0EC00
:10034000F0E000E00083E2ECF0E000E00083E4ECA9
:10035000F0E000E0008308951F930BBB00E005BBB5
:1003600000E205BB01E011E00E94C50100E005BB11
:100370001F9108950F930FE00BBB00E005BB00E257
:1003800005BB00E005BB0F910895FF93EF93DF934A
:10039000FF27F395EE27E395DD27D395D017E9F7EF
:1003A000E017C9F7F117A9F7DF91EF91FF910895D1
:1003B0000F9300E20BBF0F91089504E00EBF0FE50D
:0E03C0000DBF0E946D0178940E94890018956F
:00000001FF
