:020000020000FC
:100000000C94D5000C94DE000C94DE000C94DE0001
:100010000C94DE000C94DE000C94DE000C94DE00E8
:100020000C94DE000C94DE000C94DE000C94DE00D8
:100030000C94DE000C94DE000C94DE000C94DE00C8
:100040000C94DE000C94DE000C94DE000C94DF00B7
:100050000C94DF002D2048656C6C6F204769726C32
:100060007321202D0000494665656C54686F7365E7
:100070005468696E67730000E4E5F0E00E944F0089
:100080000E947E00E6E6F0E00E944F000FE31FE3CF
:100090000E94C2000E94C2000E948D00F9CF0F93FF
:1000A0001F932F9322270591239510E0011799F0B4
:1000B00029328CF40BBB00E805BB00EA05BB1F939B
:1000C0000F9311E001E00E94C2000F911F9100E820
:1000D00005BB0C9453002A95E0E6F0E000810695FC
:1000E0000F3729F0E1E6F0E020830C947A00E2E695
:1000F000F0E020832F911F910F9108950F93EF93BC
:10010000FF9300EC0E94AF00E0E6F0E02081209534
:100110002083FF91EF910F9108950F930CE10E94BE
:10012000AF000F9108950E949A000E94A0000E94C3
:10013000A50008950F9300E804BF04BF0F91089530
:100140000F930FEF0ABB04BB0F9108E30E94AF00AF
:100150000E94B700E0E6F0E000E0008308950BBBEA
:1001600000E005BB00E205BB00E005BB08950F936E
:100170000FE00BBB00E005BB00E205BB00E005BBE8
:100180000F910895FF93EF93DF93FF27F395EE27E9
:10019000E395DD27D395D017E9F7E017C9F7F117F5
:1001A000A9F7DF91EF91FF91089504E00EBF0FE5ED
:0E01B0000DBF0E94930078940E943C001895A9
:00000001FF
