:020000020000FC
:100000000C94A9010C94B2010C94B2010C94B201AD
:100010000C94B2010C94B2010C94B2010C94B20194
:100020000C94B2010C94B2010C94B2010C94B20184
:100030000C94B2010C94B2010C94B2010C94B20174
:100040000C94B2010C94B2010C94B2010C94B30163
:100050000C94B3012D205768656E206C6974746C24
:100060006520776F726C647320636F6C6C69646574
:1000700021202D0000002D2054686973206C696ECA
:1000800065206973206C6F6E676572207468656E99
:100090002069742073686F756C6420626521202D5F
:1000A00000007E002D205365742054696D65202D5D
:1000B00000002D205365742044617465202D0000DC
:1000C0002D205365742041637469766174696F6E85
:1000D0002054696D65202D002D2044656C65746584
:1000E0002041637469766174696F6E2054696D652F
:1000F000202D00002D2053657420427269676874BA
:100100006E657373202D0000E4E5F0E00E94D500D9
:100110000E94EF00E6E7F0E00E94D5000E94980000
:10012000003019F00E949C00F9CF0E946401F6CFC4
:1001300006B30460009508951F932F933F934F9348
:10014000EF93FF933327432F0E949800202F12E054
:100150002123211721F43395353069F43327202FDB
:1001600018E02123211739F4303019F03A950C9416
:10017000BB0035E03A95341739F3432F032F0E9423
:10018000CA000C94A400FF91EF914F913F912F91E1
:100190001F9108951F930F930E9464011FE30FE1C5
:1001A0000E9491010F911F9108950F931F932F9318
:1001B00022270591239510E0011769F029325CF49C
:1001C0000BBB00EA05BB11E001E00E94910100E8D1
:1001D00005BB0C94D9002F911F910F9108950F9397
:1001E000EF93FF9300EC0E947801E0ECF0E02081B7
:1001F00020952083FF91EF910F9108950F93EF9336
:10020000FF93E2ECF0E000810A95003110F00E94CB
:100210000D01FF91EF910F9108950F931F930081AE
:10022000E4ECF0E010810051101731F008E10E9479
:10023000780113950C9422010CE10E9478011A9523
:100240001030D1F710831F910F9108950F931F93D2
:1002500001E00BBB00E205BB11E001E00E9491014F
:1002600000E005BB17E007E00E9491011F910F918C
:1002700008950E9450010FEF0E9456010E945A01FA
:100280000E945C0100E00E94640100E00E945801AD
:100290000FEF0E9460010E9466010E94A401089570
:1002A0000F9300E804BF04BF0F9108950ABB08959F
:1002B00007BB089504BB089501BB08950BBB0895C7
:1002C00008BB089505BB089502BB089508E30E948A
:1002D00078010E948601E0ECF0E000E00083E2ECAF
:1002E000F0E000E00083E4ECF0E000E0008308953B
:1002F0001F930BBB00E005BB00E205BB01E011E072
:100300000E94910100E005BB1F9108950F930FE03B
:100310000BBB00E005BB00E205BB00E005BB0F9195
:100320000895FF93EF93DF93FF27F395EE27E3956F
:10033000DD27D395D017E9F7E017C9F7F117A9F72B
:10034000DF91EF91FF9108950F9300E20BBF0F91A2
:10035000089504E00EBF0FE50DBF0E9439017894A7
:060360000E9484001895C4
:00000001FF
