:020000020000FC
:100000000C9470030C9479030C9479030C94790389
:100010000C9479030C9479030C9479030C94790370
:100020000C9479030C9479030C9490030C94900332
:100030000C9490030C9490030C9490030C949003F4
:100040000C9490030C9490030C9490030C949103E3
:100050000C9491032D205768656E206C6974746C44
:100060006520776F726C647320636F6C6C69646574
:1000700021202D0000002D2054686973206C696ECA
:1000800065206973206C6F6E676572207468656E99
:100090002069742073686F756C6420626521202D5F
:1000A00000007E005365742054696D65000053653F
:1000B0007420446174650000536574204163746961
:1000C000766174696F6E2054696D650044656C6576
:1000D00074652041637469766174696F6E20546938
:1000E0006D650000536574204272696768746E65BF
:1000F000737300002020203C53657420486F757294
:100100003E0020203C536574204D696E7574653E39
:100110000000203C53657420205365636F6E647348
:100120003E003000E4E5F0E00E9467020E947F029A
:10013000E6E7F0E00E9467020E94A6000E94080322
:10014000003019F00E94AA00F7CFF6CF06B3046082
:10015000009508951F932F933F934F93EF93FF9331
:100160003327432F0E94A6000E940803202F11E08E
:100170002123211721F4042F0E94680118C0202F89
:1001800012E02123211721F43395353061F4332710
:10019000202F18E02123211731F4303011F03A9547
:1001A00002C035E03A95341721F0432F032F0E9407
:1001B000EB001F930F931FE30BE10E9447030F9186
:1001C0001F910E948902CECFFF91EF914F913F91F5
:1001D0002F911F9108951F93EF93FF930E94C602E2
:1001E0000E943C02E6EFE00FF0E0099404C018C062
:1001F0002CC040C054C0E2EAF0E00E946702E4EA8A
:10020000F0E001E00E9451020E9467020E947F021A
:10021000EEEAF0E000E00E9451020E94670254C042
:10022000E2EAF0E00E946702E4EEF0E001E00E9402
:1002300051020E9467020E947F02E4EAF0E000E0BF
:100240000E9451020E9467023FC0E2EAF0E00E9471
:100250006702ECECF0E001E00E9451020E946702AC
:100260000E947F02E4EEF0E000E00E9451020E9452
:1002700067022AC0E2EAF0E00E946702E8EBF0E0E1
:1002800001E00E9451020E9467020E947F02ECEC92
:10029000F0E000E00E9451020E94670215C0E2EA0D
:1002A000F0E00E946702EEEAF0E001E00E945102F5
:1002B0000E9467020E947F02E8EBF0E000E00E94EB
:1002C00051020E94670200C0FF91EF911F910895B3
:1002D000EF93FF930E94C602E0E7E00FF1E009947C
:1002E00004C006C008C00AC00CC00E9486010BC032
:1002F0000E94380208C00E94390205C00E943A02DA
:1003000002C00E943B02FF91EF9108950F931F934B
:100310002F933F934F935F936F93EF93FF930E94BD
:10032000D00130E0032F0E94DE011FE30BE10E94A9
:1003300047030E94A600202F11E02123211709F472
:1003400019C0202F12E02123211709F40EC0202FFD
:1003500018E02123211709F408C0202F10E42123DD
:10036000211719F731500AF411C04395042F0E9448
:100370000402DBCF33953330A9F6E2EDF0E04083A1
:10038000E4EDF0E05083E6EDF0E06083FF91EF9163
:100390006F915F914F913F912F911F910F91089510
:1003A000EF93FF93E2EDF0E04081E4EDF0E0508167
:1003B000E6EDF0E06081FF91FF910895EF93FF93E8
:1003C0000E94C6020E943C02003041F4E4EFF0E0DB
:1003D00000E00E9451020E94670211C0013041F406
:1003E000E2E0F1E000E00E9451020E94670207C0D3
:1003F000E2E1F1E000E00E9451020E9467020E94E7
:100400007F02FF91EF9108952F933F936F930F9386
:100410001F934F935F93EF93FF9307E010E0222722
:100420003327889460E1001F111F221F331F422FC2
:10043000532F08944A40504010F4242F352F6A95CA
:1004400091F7E2E2F1E06491620F6BBB60EA65BB99
:1004500011E061E00E94470360E865BBFF91EF9106
:100460005F914F911F910F916F913F912F9108953F
:1004700008950895089508950F930CE302BFEF9334
:10048000FF93EAECF0E000E00083E0ECF0E000E055
:100490000083E2ECF0E000E00083FF91EF910F9128
:1004A00008950F931F93EF93FF931127100F05915A
:1004B000003011F01395FBCFE0ECF0E00081011764
:1004C00008F41083FF91EF911F910F9108950F93FE
:1004D0001F932F93222705912395003061F0293235
:1004E00054F40BBB00EA05BB11E001E00E94470396
:1004F00000E805BBF0CF2F911F910F9108950F9346
:10050000EF93FF9300EC0E942E03FF91EF910F9168
:1005100008950F93EF93FF93E0ECF0E000810A95CC
:10052000003148F00E949F02013029F4E0ECF0E035
:1005300000810E94AB02FF91EF910F9108951F93EC
:10054000EF93FF93E8ECF0E0008110E01083FF915F
:10055000EF911F9108950F931F93EF93FF93E2EC98
:10056000F0E010810051101729F008E10E942E03DD
:10057000139506C00CE10E942E031A951030D1F796
:100580001083FF91EF911F910F9108950F931F9387
:1005900001E00BBB00E205BB11E001E00E94470354
:1005A00000E005BB17E007E00E9447031F910F9191
:1005B00008950E94F4020FEF0E94FA020E94FE02C8
:1005C0000E94000300E00E94080300E00E94FC0279
:1005D0000FEF0E9404030E940A030E9426030E9458
:1005E0005A030E945F0308950F9300E804BF04BFFD
:1005F0000F9108950ABB089507BB089504BB0895A1
:1006000001BB08950BBB089508BB089505BB089571
:1006100002BB08950F931F93EF93FF9310E0ECEC50
:10062000F0E01083EEECF0E01083E0EDF0E01083FA
:10063000E2EDF0E01083E4EDF0E01083E6EDF0E0B1
:100640001083FF91EF911F910F91089508E30E948D
:100650002E030E943C030E943C0208951F930BBB93
:1006600000E005BB00E205BB01E011E00E9447038A
:1006700000E005BB1F9108950F930CE00BBB00E059
:1006800005BB00E205BB00E005BB0F910895FF9399
:10069000EF93DF93FF27F395EE27E395DD27D395BF
:1006A000D017E9F7E017C9F7F117A9F7DF91EF9134
:1006B000FF9108950F9300E20BBF0F9108950F93E0
:1006C000EF93FF93EAECF0E00027008301E009BF1D
:1006D0000CE302BF04E003BFFF91EF910F91089577
:1006E00004E00EBF0FE50DBF0E94D90278940E946E
:1006F00092000F930CE302BFEF93FF93EAECF0E05C
:1007000000810395013129F401E0E8ECF0E0008379
:100710000027EAECF0E00083FF91EF910F9118952C
:0207200018952A
:00000001FF
