:020000020000FC
:100000000C94B7020C94C0020C94C0020C94C00271
:100010000C94C0020C94C0020C94C0020C94C00258
:100020000C94C0020C94C0020C94D7020C94D7021A
:100030000C94D7020C94D7020C94D7020C94D702DC
:100040000C94D7020C94D7020C94D7020C94D802CB
:100050000C94D8022D205768656E206C6974746CFE
:100060006520776F726C647320636F6C6C69646574
:1000700021202D0000002D2054686973206C696ECA
:1000800065206973206C6F6E676572207468656E99
:100090002069742073686F756C6420626521202D5F
:1000A00000007E005365742054696D65000053653F
:1000B0007420446174650000536574204163746961
:1000C000766174696F6E2054696D650044656C6576
:1000D00074652041637469766174696F6E20546938
:1000E0006D650000536574204272696768746E65BF
:1000F000737300002020203C53657420486F757294
:100100003E00E4E5F0E00E94CC010E94E401E6E755
:10011000F0E00E94CC010E9495000E946B0200302A
:1001200019F00E949900F7CFF6CF06B3046000954E
:1001300008951F932F933F934F93EF93FF9333278C
:10014000432F0E9495000E946B02202F11E0212373
:10015000211721F4042F0E9457011AC0202F12E00A
:100160002123211721F43395353061F43327202FD3
:1001700018E02123211731F4303011F03A9502C0F4
:1001800035E03A95341721F0432F032F0E94DA000F
:100190001F930F931FE30BE10E948E020F911F919B
:1001A0000E94EE01CECFFF91EF914F913F912F91A1
:1001B0001F9108951F93EF93FF930E942B020E94BB
:1001C000A101E5EEE00FF0E0099404C018C02CC0D6
:1001D00040C054C0E2EAF0E00E94CC01E4EAF0E062
:1001E00001E00E94B6010E94CC010E94E401EEEA07
:1001F000F0E000E00E94B6010E94CC0154C0E2EAA7
:10020000F0E00E94CC01E4EEF0E001E00E94B601D3
:100210000E94CC010E94E401E4EAF0E000E00E94C8
:10022000B6010E94CC013FC0E2EAF0E00E94CC019E
:10023000ECECF0E001E00E94B6010E94CC010E94CB
:10024000E401E4EEF0E000E00E94B6010E94CC017F
:100250002AC0E2EAF0E00E94CC01E8EBF0E001E025
:100260000E94B6010E94CC010E94E401ECECF0E097
:1002700000E00E94B6010E94CC0115C0E2EAF0E065
:100280000E94CC01EEEAF0E001E00E94B6010E947B
:10029000CC010E94E401E8EBF0E000E00E94B6012E
:1002A0000E94CC0100C0FF91EF911F910895EF9340
:1002B000FF930E942B02EFE5E00FF1E0099404C0E8
:1002C00006C008C00AC00CC00E9475010BC00E9485
:1002D0009D0108C00E949E0105C00E949F0102C0AE
:1002E0000E94A001FF91EF9108950F931F932F9308
:1002F0003F93EF93FF93E4EFF0E000E00E94B6013C
:100300000E94CC010E94E4010E949500202F11E080
:100310002123211709F407C0202F12E021232117E0
:1003200009F400C0F1CF3395333071F7FF91EF91AD
:100330003F912F911F910F91089508950895089569
:1003400008950F930CE302BFEF93FF93EAECF0E004
:1003500000E00083E0ECF0E000E00083E2ECF0E09D
:1003600000E00083FF91EF910F9108950F931F9389
:10037000EF93FF931127100F0591003011F01395A3
:10038000FBCFE0ECF0E00081011708F41083FF914F
:10039000EF911F910F9108950F931F932F93222791
:1003A00005912395003061F0293254F40BBB00EA2B
:1003B00005BB11E001E00E948E0200E805BBF0CF12
:1003C0002F911F910F9108950F93EF93FF9300ECDE
:1003D0000E947502FF91EF910F9108950F93EF9393
:1003E000FF93E0ECF0E000810A95003148F00E94B4
:1003F0000402013029F4E0ECF0E000810E941002D8
:10040000FF91EF910F9108951F93EF93FF93E8EC05
:10041000F0E0008110E01083FF91EF911F910895AB
:100420000F931F93EF93FF93E2ECF0E010810051E4
:10043000101729F008E10E947502139506C00CE11F
:100440000E9475021A951030D1F71083FF91EF9139
:100450001F910F9108950F931F9301E00BBB00E2D2
:1004600005BB11E001E00E948E0200E005BB17E031
:1004700007E00E948E021F910F9108950E9457027B
:100480000FEF0E945D020E9461020E94630200E081
:100490000E946B0200E00E945F020FEF0E94670261
:1004A0000E946D020E94A1020E94A60208950F936D
:1004B00000E804BF04BF0F9108950ABB089507BB6D
:1004C000089504BB089501BB08950BBB089508BBB4
:1004D000089505BB089502BB089508E30E947502C4
:1004E0000E9483020E94A10108951F930BBB00E0AC
:1004F00005BB00E205BB01E011E00E948E0200E0B6
:1005000005BB1F9108950F930CE00BBB00E005BBEA
:1005100000E205BB00E005BB0F910895FF93EF9348
:10052000DF93FF27F395EE27E395DD27D395D017CB
:10053000E9F7E017C9F7F117A9F7DF91EF91FF91FC
:1005400008950F9300E20BBF0F9108950F93EF935F
:10055000FF93EAECF0E00027008301E009BF0CE321
:1005600002BF04E003BFFF91EF910F91089504E0F3
:100570000EBF0FE50DBF0E943E0278940E948100DD
:100580000F930CE302BFEF93FF93EAECF0E00081DE
:100590000395013129F401E0E8ECF0E00083002745
:1005A000EAECF0E00083FF91EF910F911895189518
:00000001FF
