:020000020000FC
:100000000C940A010C9413010C9413010C94130129
:100010000C9413010C9413010C9413010C94130110
:100020000C9413010C9413010C9413010C94130100
:100030000C9413010C9413010C9413010C941301F0
:100040000C9413010C9413010C9413010C941401DF
:100050000C9414012D205768656E206C6974746CC3
:100060006520776F726C647320636F6C6C69646574
:1000700021202D0000002D2054686973206C696ECA
:1000800065206973206C6F6E676572207468656E99
:100090002069742073686F756C6420626521202D5F
:1000A0000000E4E5F0E00E9462000E948500E6E7BF
:1000B000F0E00E94620000E41FE20E94F7000E944C
:1000C0009400F9CF0F931F932F9322270591239527
:1000D00010E0011779F029326CF40BBB00E805BB86
:1000E00000EA05BB11E001E00E94F70000E805BB53
:1000F0000C9466002A95E2ECF0E00081201708F0ED
:1001000020832F911F910F9108950F93EF93FF93E9
:1001100000EC0E94E200E0ECF0E0208120952083DA
:10012000FF91EF910F9108950F93EF93FF93E2ECFE
:10013000F0E000810A95003110F00E94A300FF91C9
:10014000EF910F9108950F931F930081E4ECF0E07D
:1001500010810051101731F008E10E94E200139560
:100160000C94B8000CE10E94E2001A951030D1F70F
:1001700010831F910F9108950E94C6000FEF0E94F7
:10018000CC000E94CE000E94D00008950F9300E89A
:1001900004BF04BF0F9108950ABB089504BB0895DE
:1001A00008E30E94E2000E94EC00E0ECF0E000E0D6
:1001B0000083E2ECF0E000E00083E4ECF0E000E03B
:1001C000008308950BBB00E005BB00E205BB0E9465
:1001D000F70000E005BB08950F930FE00BBB00E0B4
:1001E00005BB00E205BB00E005BB0F910895FF933E
:1001F000EF93DF93FF27F395EE27E395DD27D39564
:10020000D017E9F7E017C9F7F117A9F7DF91EF91D8
:10021000FF91089504E00EBF0FE50DBF0E94BC00E2
:0802200078940E94510018952A
:00000001FF
