:020000020000FC
:100000000C9496010C949F010C949F010C949F01F9
:100010000C949F010C949F010C949F010C949F01E0
:100020000C949F010C949F010C949F010C949F01D0
:100030000C949F010C949F010C949F010C949F01C0
:100040000C949F010C949F010C949F010C94A001AF
:100050000C94A0012D205768656E206C6974746C37
:100060006520776F726C647320636F6C6C69646574
:1000700021202D0000002D2054686973206C696ECA
:1000800065206973206C6F6E676572207468656E99
:100090002069742073686F756C6420626521202D5F
:1000A00000002D205365742054696D65202D0000DB
:1000B0002D205365742044617465202D202020205C
:1000C0002020202020202020202020202020000070
:1000D0002D205365742041637469766174696F6E75
:1000E0002054696D65202D002D2044656C65746574
:1000F0002041637469766174696F6E2054696D651F
:10010000202D00002D2053657420427269676874A9
:100110006E657373202D0000E4E5F0E00E94CC00D2
:100120000E94EF00E6E7F0E00E94CC000FE11FE143
:100130000E947E010E94A600003029F00E94BD00AE
:100140000E945101F7CF0E945101F4CF1F932F93CA
:100150003F934F935F9346B344601FEF242F512F7B
:100160000FEF041B01233FEF351B2323022B5F916D
:100170004F913F912F911F910895E2EAF0E00E9484
:10018000CC000E94EF00E0EBF0E00E94CC000FE119
:100190001FE10E947E0108950F931F932F93222742
:1001A0000591239510E0011779F029326CF40BBB0F
:1001B00000E805BB00EA05BB11E001E00E947E01FA
:1001C00000E805BB0C94D0002A95E2ECF0E0008139
:1001D000201708F020832F911F910F9108950F93FE
:1001E000EF93FF9300EC0E946501E0ECF0E02081CA
:1001F00020952083FF91EF910F9108950F93EF9336
:10020000FF93E2ECF0E000810A95003110F00E94CB
:100210000D01FF91EF910F9108950F931F930081AE
:10022000E4ECF0E010810051101731F008E10E9479
:10023000650113950C9422010CE10E9465011A9549
:100240001030D1F710831F910F9108950E943D0146
:100250000FEF0E9443010E9447010E94490100E004
:100260000E94510100E00E9445010FEF0E944D01E4
:100270000E9453010E94910108950F9300E804BF6A
:1002800004BF0F9108950ABB089507BB089504BBEE
:10029000089501BB08950BBB089508BB089505BBE5
:1002A000089502BB089508E30E9465010E9473014E
:1002B000E0ECF0E000E00083E2ECF0E000E000833E
:1002C000E4ECF0E000E0008308951F930BBB00E036
:1002D00005BB00E205BB01E011E00E947E0100E0E9
:1002E00005BB1F9108950F930FE00BBB00E005BB0A
:1002F00000E205BB00E005BB0F910895FF93EF936B
:10030000DF93FF27F395EE27E395DD27D395D017ED
:10031000E9F7E017C9F7F117A9F7DF91EF91FF911E
:1003200008950F9300E20BBF0F91089504E00EBFF4
:100330000FE50DBF0E94260178940E948C0018954D
:00000001FF
