:020000020000FC
:100000000C9437030C9440030C9440030C9440036D
:100010000C9440030C9440030C9440030C94400354
:100020000C9440030C9440030C9457030C94570316
:100030000C9457030C9457030C9457030C945703D8
:100040000C9457030C9457030C9457030C945803C7
:100050000C9458032D205768656E206C6974746C7D
:100060006520776F726C647320636F6C6C69646574
:1000700021202D0000002D2054686973206C696ECA
:1000800065206973206C6F6E676572207468656E99
:100090002069742073686F756C6420626521202D5F
:1000A00000007E005365742054696D65000053653F
:1000B0007420446174650000536574204163746961
:1000C000766174696F6E2054696D650044656C6576
:1000D00074652041637469766174696F6E20546938
:1000E0006D650000536574204272696768746E65BF
:1000F000737300002020203C53657420486F757294
:100100003E0020203C536574204D696E7574653E39
:100110000000203C53657420205365636F6E647348
:100120003E00E4E5F0E00E942E020E944602E6E76F
:10013000F0E00E942E020E94A5000E94CF02003033
:1001400019F00E94A900F7CFF6CF06B3046000951E
:1001500008951F932F933F934F93EF93FF9333276C
:10016000432F0E94A5000E94CF02202F11E02123DF
:10017000211721F4042F0E9467011AC0202F12E0DA
:100180002123211721F43395353061F43327202FB3
:1001900018E02123211731F4303011F03A9502C0D4
:1001A00035E03A95341721F0432F032F0E94EA00DF
:1001B0001F930F931FE30BE10E940E030F911F91FA
:1001C0000E945002CECFFF91EF914F913F912F911E
:1001D0001F9108951F93EF93FF930E948D020E9439
:1001E0000302E5EFE00FF0E0099404C018C02CC052
:1001F00040C054C0E2EAF0E00E942E02E4EAF0E0DF
:1002000001E00E9418020E942E020E944602EEEABD
:10021000F0E000E00E9418020E942E0254C0E2EAC0
:10022000F0E00E942E02E4EEF0E001E00E941802ED
:100230000E942E020E944602E4EAF0E000E00E94E2
:1002400018020E942E023FC0E2EAF0E00E942E0255
:10025000ECECF0E001E00E9418020E942E020E94E5
:100260004602E4EEF0E000E00E9418020E942E0236
:100270002AC0E2EAF0E00E942E02E8EBF0E001E0A2
:100280000E9418020E942E020E944602ECECF0E04E
:1002900000E00E9418020E942E0215C0E2EAF0E07F
:1002A0000E942E02EEEAF0E001E00E9418020E9495
:1002B0002E020E944602E8EBF0E000E00E941802E5
:1002C0000E942E0200C0FF91EF911F910895EF93BD
:1002D000FF930E948D02EFE6E00FF1E0099404C065
:1002E00006C008C00AC00CC00E9485010BC00E9455
:1002F000FF0108C00E94000205C00E94010202C066
:100300000E940202FF91EF9108950F931F932F9384
:100310003F934F935F936F93EF93FF930E94F1018D
:1003200030E0032F0E94CB011FE30BE10E940E037C
:100330000E94A500202F11E02123211709F415C0E8
:10034000202F12E02123211709F40EC0202F18E0DE
:100350002123211709F408C0202F10E4212321179D
:1003600019F73150F2F60DC0DFCF33953330C9F6AF
:10037000E2EDF0E04083E4EDF0E05083E6EDF0E004
:100380006083FF91EF916F915F914F913F912F911A
:100390001F910F910895EF93FF930E948D020E9489
:1003A0000302003041F4E4EFF0E000E00E941802A4
:1003B0000E942E0211C0013041F4E2E0F1E000E0C1
:1003C0000E9418020E942E0207C0E2E1F1E000E064
:1003D0000E9418020E942E020E944602FF91EF9195
:1003E0000895EF93FF93E2EDF0E04081E4EDF0E05B
:1003F0005081E6EDF0E06081FF91FF91089508954E
:100400000895089508950F930CE302BFEF93FF93AF
:10041000EAECF0E000E00083E0ECF0E000E00083D4
:10042000E2ECF0E000E00083FF91EF910F9108957E
:100430000F931F93EF93FF931127100F0591003037
:1004400011F01395FBCFE0ECF0E00081011708F408
:100450001083FF91EF911F910F9108950F931F93B8
:100460002F93222705912395003061F0293254F40F
:100470000BBB00EA05BB11E001E00E940E0300E89F
:1004800005BBF0CF2F911F910F9108950F93EF931C
:10049000FF9300EC0E94F502FF91EF910F910895F8
:1004A0000F93EF93FF93E0ECF0E000810A950031A9
:1004B00048F00E946602013029F4E0ECF0E000818F
:1004C0000E947202FF91EF910F9108951F93EF9395
:1004D000FF93E8ECF0E0008110E01083FF91EF91D2
:1004E0001F9108950F931F93EF93FF93E2ECF0E0B9
:1004F00010810051101729F008E10E94F5021395B0
:1005000006C00CE10E94F5021A951030D1F7108355
:10051000FF91EF911F910F9108950F931F9301E0A9
:100520000BBB00E205BB11E001E00E940E0300E0FE
:1005300005BB17E007E00E940E031F910F9108957D
:100540000E94BB020FEF0E94C1020E94C5020E94DE
:10055000C70200E00E94CF0200E00E94C3020FEF3A
:100560000E94CB020E94D1020E94ED020E94210350
:100570000E94260308950F9300E804BF04BF0F9163
:1005800008950ABB089507BB089504BB089501BBF5
:1005900008950BBB089508BB089505BB089502BBE1
:1005A00008950F931F93EF93FF9310E0ECECF0E0AE
:1005B0001083EEECF0E01083E0EDF0E01083E2ED6C
:1005C000F0E01083E4EDF0E01083E6EDF0E010835E
:1005D000FF91EF911F910F91089508E30E94F5029A
:1005E0000E9403030E94030208951F930BBB00E0C7
:1005F00005BB00E205BB01E011E00E940E0300E034
:1006000005BB1F9108950F930CE00BBB00E005BBE9
:1006100000E205BB00E005BB0F910895FF93EF9347
:10062000DF93FF27F395EE27E395DD27D395D017CA
:10063000E9F7E017C9F7F117A9F7DF91EF91FF91FB
:1006400008950F9300E20BBF0F9108950F93EF935E
:10065000FF93EAECF0E00027008301E009BF0CE320
:1006600002BF04E003BFFF91EF910F91089504E0F2
:100670000EBF0FE50DBF0E94A00278940E9491006A
:100680000F930CE302BFEF93FF93EAECF0E00081DD
:100690000395013129F401E0E8ECF0E00083002744
:1006A000EAECF0E00083FF91EF910F911895189517
:00000001FF
